{"abi":[{"type":"function","name":"mathMastersSqrt","inputs":[{"name":"x","type":"uint256","internalType":"uint256"}],"outputs":[{"name":"z","type":"uint256","internalType":"uint256"}],"stateMutability":"pure"},{"type":"function","name":"mathMastersTopHalf","inputs":[{"name":"x","type":"uint256","internalType":"uint256"}],"outputs":[{"name":"z","type":"uint256","internalType":"uint256"}],"stateMutability":"pure"},{"type":"function","name":"mulWadUp","inputs":[{"name":"x","type":"uint256","internalType":"uint256"},{"name":"y","type":"uint256","internalType":"uint256"}],"outputs":[{"name":"z","type":"uint256","internalType":"uint256"}],"stateMutability":"nonpayable"},{"type":"function","name":"solmateTopHalf","inputs":[{"name":"x","type":"uint256","internalType":"uint256"}],"outputs":[{"name":"z","type":"uint256","internalType":"uint256"}],"stateMutability":"pure"},{"type":"function","name":"sqrtUni","inputs":[{"name":"y","type":"uint256","internalType":"uint256"}],"outputs":[{"name":"z","type":"uint256","internalType":"uint256"}],"stateMutability":"pure"}],"bytecode":{"object":"0x608060405234801561001057600080fd5b5061039b806100206000396000f3fe608060405234801561001057600080fd5b50600436106100575760003560e01c806340d161a91461005c5780634a529c27146100d05780639705a92b146100e3578063ae9768a8146100f6578063cf205d0c14610109575b600080fd5b6100be61006a3660046102e7565b6001600160881b03811160071b81811c68ffffffffffffffffff1060061b1781811c64ffffffffff1060051b1781811c62ffff2a1060041b1790811c620100000160b560019290921c9190911b0260121c90565b60405190815260200160405180910390f35b6100be6100de3660046102e7565b61011c565b6100be6100f13660046102e7565b61018d565b6100be610104366004610300565b61021b565b6100be6101173660046102e7565b61022e565b60b581600160881b81106101355760409190911b9060801c5b690100000000000000000081106101515760209190911b9060401c5b6501000000000081106101695760109190911b9060201c5b6301000000811061017f5760089190911b9060101c5b62010000010260121c919050565b6000610215826001600160881b03811160071b81811c68ffffffffffffffffff1060061b1781811c64ffffffffff1060051b1781811c62ffff2a1060041b1781811c620100000160b5600192831c1b0260121c80830401811c80830401811c80830401811c80830401811c80830401811c80830401811c80830401901c908190048111900390565b92915050565b6000610227838361029e565b9392505050565b6000600382111561028f5750806000610248600283610322565b610253906001610344565b90505b818110156102895790508060028161026e8186610322565b6102789190610344565b6102829190610322565b9050610256565b50919050565b8115610299575060015b919050565b6000816000190483118202156102bc5763bac65e5b6040526004601cfd5b60018284830104036102cf576001830192505b50670de0b6b3a7640000910281810615159190040190565b6000602082840312156102f957600080fd5b5035919050565b6000806040838503121561031357600080fd5b50508035926020909101359150565b60008261033f57634e487b7160e01b600052601260045260246000fd5b500490565b8082018082111561021557634e487b7160e01b600052601160045260246000fdfea2646970667358221220f581ff1132ee6f7b9792937232bd1800c5159ac0733ae5dc111310a7229adade64736f6c63430008140033","linkReferences":{}},"methodIdentifiers":{"mathMastersSqrt(uint256)":"9705a92b","mathMastersTopHalf(uint256)":"40d161a9","mulWadUp(uint256,uint256)":"ae9768a8","solmateTopHalf(uint256)":"4a529c27","sqrtUni(uint256)":"cf205d0c"},"id":25}