{"abi":[{"type":"constructor","inputs":[],"stateMutability":"nonpayable"},{"type":"function","name":"approve","inputs":[{"name":"to","type":"address","internalType":"address"},{"name":"tokenId","type":"uint256","internalType":"uint256"}],"outputs":[],"stateMutability":"nonpayable"},{"type":"function","name":"balanceOf","inputs":[{"name":"owner","type":"address","internalType":"address"}],"outputs":[{"name":"","type":"uint256","internalType":"uint256"}],"stateMutability":"view"},{"type":"function","name":"getApproved","inputs":[{"name":"tokenId","type":"uint256","internalType":"uint256"}],"outputs":[{"name":"","type":"address","internalType":"address"}],"stateMutability":"view"},{"type":"function","name":"isApprovedForAll","inputs":[{"name":"owner","type":"address","internalType":"address"},{"name":"operator","type":"address","internalType":"address"}],"outputs":[{"name":"","type":"bool","internalType":"bool"}],"stateMutability":"view"},{"type":"function","name":"mint","inputs":[],"outputs":[],"stateMutability":"nonpayable"},{"type":"function","name":"name","inputs":[],"outputs":[{"name":"","type":"string","internalType":"string"}],"stateMutability":"view"},{"type":"function","name":"ownerOf","inputs":[{"name":"tokenId","type":"uint256","internalType":"uint256"}],"outputs":[{"name":"","type":"address","internalType":"address"}],"stateMutability":"view"},{"type":"function","name":"safeTransferFrom","inputs":[{"name":"from","type":"address","internalType":"address"},{"name":"to","type":"address","internalType":"address"},{"name":"tokenId","type":"uint256","internalType":"uint256"}],"outputs":[],"stateMutability":"nonpayable"},{"type":"function","name":"safeTransferFrom","inputs":[{"name":"from","type":"address","internalType":"address"},{"name":"to","type":"address","internalType":"address"},{"name":"tokenId","type":"uint256","internalType":"uint256"},{"name":"data","type":"bytes","internalType":"bytes"}],"outputs":[],"stateMutability":"nonpayable"},{"type":"function","name":"setApprovalForAll","inputs":[{"name":"operator","type":"address","internalType":"address"},{"name":"approved","type":"bool","internalType":"bool"}],"outputs":[],"stateMutability":"nonpayable"},{"type":"function","name":"supportsInterface","inputs":[{"name":"interfaceId","type":"bytes4","internalType":"bytes4"}],"outputs":[{"name":"","type":"bool","internalType":"bool"}],"stateMutability":"view"},{"type":"function","name":"symbol","inputs":[],"outputs":[{"name":"","type":"string","internalType":"string"}],"stateMutability":"view"},{"type":"function","name":"tokenByIndex","inputs":[{"name":"index","type":"uint256","internalType":"uint256"}],"outputs":[{"name":"","type":"uint256","internalType":"uint256"}],"stateMutability":"view"},{"type":"function","name":"tokenOfOwnerByIndex","inputs":[{"name":"owner","type":"address","internalType":"address"},{"name":"index","type":"uint256","internalType":"uint256"}],"outputs":[{"name":"","type":"uint256","internalType":"uint256"}],"stateMutability":"view"},{"type":"function","name":"tokenURI","inputs":[{"name":"tokenId","type":"uint256","internalType":"uint256"}],"outputs":[{"name":"","type":"string","internalType":"string"}],"stateMutability":"view"},{"type":"function","name":"totalSupply","inputs":[],"outputs":[{"name":"","type":"uint256","internalType":"uint256"}],"stateMutability":"view"},{"type":"function","name":"transferFrom","inputs":[{"name":"from","type":"address","internalType":"address"},{"name":"to","type":"address","internalType":"address"},{"name":"tokenId","type":"uint256","internalType":"uint256"}],"outputs":[],"stateMutability":"nonpayable"},{"type":"event","name":"Approval","inputs":[{"name":"owner","type":"address","indexed":true,"internalType":"address"},{"name":"approved","type":"address","indexed":true,"internalType":"address"},{"name":"tokenId","type":"uint256","indexed":true,"internalType":"uint256"}],"anonymous":false},{"type":"event","name":"ApprovalForAll","inputs":[{"name":"owner","type":"address","indexed":true,"internalType":"address"},{"name":"operator","type":"address","indexed":true,"internalType":"address"},{"name":"approved","type":"bool","indexed":false,"internalType":"bool"}],"anonymous":false},{"type":"event","name":"Transfer","inputs":[{"name":"from","type":"address","indexed":true,"internalType":"address"},{"name":"to","type":"address","indexed":true,"internalType":"address"},{"name":"tokenId","type":"uint256","indexed":true,"internalType":"uint256"}],"anonymous":false},{"type":"error","name":"ERC721EnumerableForbiddenBatchMint","inputs":[]},{"type":"error","name":"ERC721IncorrectOwner","inputs":[{"name":"sender","type":"address","internalType":"address"},{"name":"tokenId","type":"uint256","internalType":"uint256"},{"name":"owner","type":"address","internalType":"address"}]},{"type":"error","name":"ERC721InsufficientApproval","inputs":[{"name":"operator","type":"address","internalType":"address"},{"name":"tokenId","type":"uint256","internalType":"uint256"}]},{"type":"error","name":"ERC721InvalidApprover","inputs":[{"name":"approver","type":"address","internalType":"address"}]},{"type":"error","name":"ERC721InvalidOperator","inputs":[{"name":"operator","type":"address","internalType":"address"}]},{"type":"error","name":"ERC721InvalidOwner","inputs":[{"name":"owner","type":"address","internalType":"address"}]},{"type":"error","name":"ERC721InvalidReceiver","inputs":[{"name":"receiver","type":"address","internalType":"address"}]},{"type":"error","name":"ERC721InvalidSender","inputs":[{"name":"sender","type":"address","internalType":"address"}]},{"type":"error","name":"ERC721NonexistentToken","inputs":[{"name":"tokenId","type":"uint256","internalType":"uint256"}]},{"type":"error","name":"ERC721OutOfBoundsIndex","inputs":[{"name":"owner","type":"address","internalType":"address"},{"name":"index","type":"uint256","internalType":"uint256"}]}],"bytecode":{"object":"0x60806040523480156200001157600080fd5b50604051806040016040528060078152602001664e66744d6f636b60c81b815250604051806040016040528060078152602001664e46544d4f434b60c81b815250816000908162000063919062000120565b50600162000072828262000120565b505050620001ec565b634e487b7160e01b600052604160045260246000fd5b600181811c90821680620000a657607f821691505b602082108103620000c757634e487b7160e01b600052602260045260246000fd5b50919050565b601f8211156200011b57600081815260208120601f850160051c81016020861015620000f65750805b601f850160051c820191505b81811015620001175782815560010162000102565b5050505b505050565b81516001600160401b038111156200013c576200013c6200007b565b62000154816200014d845462000091565b84620000cd565b602080601f8311600181146200018c5760008415620001735750858301515b600019600386901b1c1916600185901b17855562000117565b600085815260208120601f198616915b82811015620001bd578886015182559484019460019091019084016200019c565b5085821015620001dc5787850151600019600388901b60f8161c191681555b5050505050600190811b01905550565b61138b80620001fc6000396000f3fe608060405234801561001057600080fd5b506004361061010b5760003560e01c806342842e0e116100a257806395d89b411161007157806395d89b4114610219578063a22cb46514610221578063b88d4fde14610234578063c87b56dd14610247578063e985e9c51461025a57600080fd5b806342842e0e146101cd5780634f6ccce7146101e05780636352211e146101f357806370a082311461020657600080fd5b80631249c58b116100de5780631249c58b1461018d57806318160ddd1461019557806323b872dd146101a75780632f745c59146101ba57600080fd5b806301ffc9a71461011057806306fdde0314610138578063081812fc1461014d578063095ea7b314610178575b600080fd5b61012361011e366004610fae565b61026d565b60405190151581526020015b60405180910390f35b610140610298565b60405161012f919061101b565b61016061015b36600461102e565b61032a565b6040516001600160a01b03909116815260200161012f565b61018b610186366004611063565b610353565b005b61018b610362565b6008545b60405190815260200161012f565b61018b6101b536600461108d565b610376565b6101996101c8366004611063565b610406565b61018b6101db36600461108d565b61046b565b6101996101ee36600461102e565b61048b565b61016061020136600461102e565b6104e4565b6101996102143660046110c9565b6104ef565b610140610537565b61018b61022f3660046110e4565b610546565b61018b610242366004611136565b610551565b61014061025536600461102e565b610568565b610123610268366004611212565b6105dd565b60006001600160e01b0319821663780e9d6360e01b148061029257506102928261060b565b92915050565b6060600080546102a790611245565b80601f01602080910402602001604051908101604052809291908181526020018280546102d390611245565b80156103205780601f106102f557610100808354040283529160200191610320565b820191906000526020600020905b81548152906001019060200180831161030357829003601f168201915b5050505050905090565b60006103358261065b565b506000828152600460205260409020546001600160a01b0316610292565b61035e828233610694565b5050565b6103743361036f60085490565b6106a1565b565b6001600160a01b0382166103a557604051633250574960e11b8152600060048201526024015b60405180910390fd5b60006103b28383336106bb565b9050836001600160a01b0316816001600160a01b031614610400576040516364283d7b60e01b81526001600160a01b038086166004830152602482018490528216604482015260640161039c565b50505050565b6000610411836104ef565b82106104425760405163295f44f760e21b81526001600160a01b03841660048201526024810183905260440161039c565b506001600160a01b03919091166000908152600660209081526040808320938352929052205490565b61048683838360405180602001604052806000815250610551565b505050565b600061049660085490565b82106104bf5760405163295f44f760e21b8152600060048201526024810183905260440161039c565b600882815481106104d2576104d261127f565b90600052602060002001549050919050565b60006102928261065b565b60006001600160a01b03821661051b576040516322718ad960e21b81526000600482015260240161039c565b506001600160a01b031660009081526003602052604090205490565b6060600180546102a790611245565b61035e338383610790565b61055c848484610376565b6104008484848461082f565b60606105738261065b565b50600061058b60408051602081019091526000815290565b905060008151116105ab57604051806020016040528060008152506105d6565b806105b584610958565b6040516020016105c6929190611295565b6040516020818303038152906040525b9392505050565b6001600160a01b03918216600090815260056020908152604080832093909416825291909152205460ff1690565b60006001600160e01b031982166380ac58cd60e01b148061063c57506001600160e01b03198216635b5e139f60e01b145b8061029257506301ffc9a760e01b6001600160e01b0319831614610292565b6000818152600260205260408120546001600160a01b03168061029257604051637e27328960e01b81526004810184905260240161039c565b61048683838360016109eb565b61035e828260405180602001604052806000815250610af1565b6000806106c9858585610b08565b90506001600160a01b0381166107265761072184600880546000838152600960205260408120829055600182018355919091527ff3f7a9fe364faab93b216da50a3214154f22a0a2b415b23a84c8169e8b636ee30155565b610749565b846001600160a01b0316816001600160a01b031614610749576107498185610c01565b6001600160a01b0385166107655761076084610c92565b610788565b846001600160a01b0316816001600160a01b031614610788576107888585610d41565b949350505050565b6001600160a01b0382166107c257604051630b61174360e31b81526001600160a01b038316600482015260240161039c565b6001600160a01b03838116600081815260056020908152604080832094871680845294825291829020805460ff191686151590811790915591519182527f17307eab39ab6107e8899845ad3d59bd9653f200f220920489ca2b5937696c31910160405180910390a3505050565b6001600160a01b0383163b1561040057604051630a85bd0160e11b81526001600160a01b0384169063150b7a02906108719033908890879087906004016112c4565b6020604051808303816000875af19250505080156108ac575060408051601f3d908101601f191682019092526108a991810190611301565b60015b610915573d8080156108da576040519150601f19603f3d011682016040523d82523d6000602084013e6108df565b606091505b50805160000361090d57604051633250574960e11b81526001600160a01b038516600482015260240161039c565b805181602001fd5b6001600160e01b03198116630a85bd0160e11b1461095157604051633250574960e11b81526001600160a01b038516600482015260240161039c565b5050505050565b6060600061096583610d91565b600101905060008167ffffffffffffffff81111561098557610985611120565b6040519080825280601f01601f1916602001820160405280156109af576020820181803683370190505b5090508181016020015b600019016f181899199a1a9b1b9c1cb0b131b232b360811b600a86061a8153600a85049450846109b957509392505050565b80806109ff57506001600160a01b03821615155b15610ac1576000610a0f8461065b565b90506001600160a01b03831615801590610a3b5750826001600160a01b0316816001600160a01b031614155b8015610a4e5750610a4c81846105dd565b155b15610a775760405163a9fbf51f60e01b81526001600160a01b038416600482015260240161039c565b8115610abf5783856001600160a01b0316826001600160a01b03167f8c5be1e5ebec7d5bd14f71427d1e84f3dd0314c0f7b2291e5b200ac8c7c3b92560405160405180910390a45b505b5050600090815260046020526040902080546001600160a01b0319166001600160a01b0392909216919091179055565b610afb8383610e69565b610486600084848461082f565b6000828152600260205260408120546001600160a01b0390811690831615610b3557610b35818486610ece565b6001600160a01b03811615610b7357610b526000856000806109eb565b6001600160a01b038116600090815260036020526040902080546000190190555b6001600160a01b03851615610ba2576001600160a01b0385166000908152600360205260409020805460010190555b60008481526002602052604080822080546001600160a01b0319166001600160a01b0389811691821790925591518793918516917fddf252ad1be2c89b69c2b068fc378daa952ba7f163c4a11628f55a4df523b3ef91a4949350505050565b6000610c0c836104ef565b600083815260076020526040902054909150808214610c5f576001600160a01b03841660009081526006602090815260408083208584528252808320548484528184208190558352600790915290208190555b5060009182526007602090815260408084208490556001600160a01b039094168352600681528383209183525290812055565b600854600090610ca49060019061131e565b60008381526009602052604081205460088054939450909284908110610ccc57610ccc61127f565b906000526020600020015490508060088381548110610ced57610ced61127f565b6000918252602080832090910192909255828152600990915260408082208490558582528120556008805480610d2557610d2561133f565b6001900381819060005260206000200160009055905550505050565b60006001610d4e846104ef565b610d58919061131e565b6001600160a01b039093166000908152600660209081526040808320868452825280832085905593825260079052919091209190915550565b60008072184f03e93ff9f4daa797ed6e38ed64bf6a1f0160401b8310610dd05772184f03e93ff9f4daa797ed6e38ed64bf6a1f0160401b830492506040015b6d04ee2d6d415b85acef81000000008310610dfc576d04ee2d6d415b85acef8100000000830492506020015b662386f26fc100008310610e1a57662386f26fc10000830492506010015b6305f5e1008310610e32576305f5e100830492506008015b6127108310610e4657612710830492506004015b60648310610e58576064830492506002015b600a83106102925760010192915050565b6001600160a01b038216610e9357604051633250574960e11b81526000600482015260240161039c565b6000610ea1838360006106bb565b90506001600160a01b03811615610486576040516339e3563760e11b81526000600482015260240161039c565b610ed9838383610f32565b610486576001600160a01b038316610f0757604051637e27328960e01b81526004810182905260240161039c565b60405163177e802f60e01b81526001600160a01b03831660048201526024810182905260440161039c565b60006001600160a01b038316158015906107885750826001600160a01b0316846001600160a01b03161480610f6c5750610f6c84846105dd565b806107885750506000908152600460205260409020546001600160a01b03908116911614919050565b6001600160e01b031981168114610fab57600080fd5b50565b600060208284031215610fc057600080fd5b81356105d681610f95565b60005b83811015610fe6578181015183820152602001610fce565b50506000910152565b60008151808452611007816020860160208601610fcb565b601f01601f19169290920160200192915050565b6020815260006105d66020830184610fef565b60006020828403121561104057600080fd5b5035919050565b80356001600160a01b038116811461105e57600080fd5b919050565b6000806040838503121561107657600080fd5b61107f83611047565b946020939093013593505050565b6000806000606084860312156110a257600080fd5b6110ab84611047565b92506110b960208501611047565b9150604084013590509250925092565b6000602082840312156110db57600080fd5b6105d682611047565b600080604083850312156110f757600080fd5b61110083611047565b91506020830135801515811461111557600080fd5b809150509250929050565b634e487b7160e01b600052604160045260246000fd5b6000806000806080858703121561114c57600080fd5b61115585611047565b935061116360208601611047565b925060408501359150606085013567ffffffffffffffff8082111561118757600080fd5b818701915087601f83011261119b57600080fd5b8135818111156111ad576111ad611120565b604051601f8201601f19908116603f011681019083821181831017156111d5576111d5611120565b816040528281528a60208487010111156111ee57600080fd5b82602086016020830137600060208483010152809550505050505092959194509250565b6000806040838503121561122557600080fd5b61122e83611047565b915061123c60208401611047565b90509250929050565b600181811c9082168061125957607f821691505b60208210810361127957634e487b7160e01b600052602260045260246000fd5b50919050565b634e487b7160e01b600052603260045260246000fd5b600083516112a7818460208801610fcb565b8351908301906112bb818360208801610fcb565b01949350505050565b6001600160a01b03858116825284166020820152604081018390526080606082018190526000906112f790830184610fef565b9695505050505050565b60006020828403121561131357600080fd5b81516105d681610f95565b8181038181111561029257634e487b7160e01b600052601160045260246000fd5b634e487b7160e01b600052603160045260246000fdfea2646970667358221220df00764e20f236fa198a57d1165e514ec9f60cc38624ecf0a36fa1f50789399664736f6c63430008140033","linkReferences":{}},"methodIdentifiers":{"approve(address,uint256)":"095ea7b3","balanceOf(address)":"70a08231","getApproved(uint256)":"081812fc","isApprovedForAll(address,address)":"e985e9c5","mint()":"1249c58b","name()":"06fdde03","ownerOf(uint256)":"6352211e","safeTransferFrom(address,address,uint256)":"42842e0e","safeTransferFrom(address,address,uint256,bytes)":"b88d4fde","setApprovalForAll(address,bool)":"a22cb465","supportsInterface(bytes4)":"01ffc9a7","symbol()":"95d89b41","tokenByIndex(uint256)":"4f6ccce7","tokenOfOwnerByIndex(address,uint256)":"2f745c59","tokenURI(uint256)":"c87b56dd","totalSupply()":"18160ddd","transferFrom(address,address,uint256)":"23b872dd"},"id":40}