{"abi":[{"type":"function","name":"buyItem","inputs":[{"name":"nftAddress","type":"address","internalType":"address"},{"name":"tokenId","type":"uint256","internalType":"uint256"}],"outputs":[],"stateMutability":"payable"},{"type":"function","name":"cancelListing","inputs":[{"name":"nftAddress","type":"address","internalType":"address"},{"name":"tokenId","type":"uint256","internalType":"uint256"}],"outputs":[],"stateMutability":"nonpayable"},{"type":"function","name":"getListing","inputs":[{"name":"nftAddress","type":"address","internalType":"address"},{"name":"tokenId","type":"uint256","internalType":"uint256"}],"outputs":[{"name":"","type":"tuple","internalType":"struct INftMarketplace.Listing","components":[{"name":"price","type":"uint256","internalType":"uint256"},{"name":"seller","type":"address","internalType":"address"}]}],"stateMutability":"view"},{"type":"function","name":"getProceeds","inputs":[{"name":"seller","type":"address","internalType":"address"}],"outputs":[{"name":"","type":"uint256","internalType":"uint256"}],"stateMutability":"view"},{"type":"function","name":"listItem","inputs":[{"name":"nftAddress","type":"address","internalType":"address"},{"name":"tokenId","type":"uint256","internalType":"uint256"},{"name":"price","type":"uint256","internalType":"uint256"}],"outputs":[],"stateMutability":"nonpayable"},{"type":"function","name":"onERC721Received","inputs":[{"name":"","type":"address","internalType":"address"},{"name":"","type":"address","internalType":"address"},{"name":"","type":"uint256","internalType":"uint256"},{"name":"","type":"bytes","internalType":"bytes"}],"outputs":[{"name":"","type":"bytes4","internalType":"bytes4"}],"stateMutability":"pure"},{"type":"function","name":"updateListing","inputs":[{"name":"nftAddress","type":"address","internalType":"address"},{"name":"tokenId","type":"uint256","internalType":"uint256"},{"name":"newPrice","type":"uint256","internalType":"uint256"}],"outputs":[],"stateMutability":"nonpayable"},{"type":"function","name":"withdrawProceeds","inputs":[],"outputs":[],"stateMutability":"nonpayable"},{"type":"event","name":"ItemBought","inputs":[{"name":"buyer","type":"address","indexed":true,"internalType":"address"},{"name":"nftAddress","type":"address","indexed":true,"internalType":"address"},{"name":"tokenId","type":"uint256","indexed":true,"internalType":"uint256"},{"name":"price","type":"uint256","indexed":false,"internalType":"uint256"}],"anonymous":false},{"type":"event","name":"ItemCanceled","inputs":[{"name":"seller","type":"address","indexed":true,"internalType":"address"},{"name":"nftAddress","type":"address","indexed":true,"internalType":"address"},{"name":"tokenId","type":"uint256","indexed":true,"internalType":"uint256"}],"anonymous":false},{"type":"event","name":"ItemListed","inputs":[{"name":"seller","type":"address","indexed":true,"internalType":"address"},{"name":"nftAddress","type":"address","indexed":true,"internalType":"address"},{"name":"tokenId","type":"uint256","indexed":true,"internalType":"uint256"},{"name":"price","type":"uint256","indexed":false,"internalType":"uint256"}],"anonymous":false},{"type":"event","name":"ItemUpdated","inputs":[{"name":"seller","type":"address","indexed":true,"internalType":"address"},{"name":"nftAddress","type":"address","indexed":true,"internalType":"address"},{"name":"tokenId","type":"uint256","indexed":true,"internalType":"uint256"},{"name":"price","type":"uint256","indexed":false,"internalType":"uint256"}],"anonymous":false},{"type":"error","name":"NftMarketplace__NoProceeds","inputs":[]},{"type":"error","name":"NftMarketplace__NotListed","inputs":[{"name":"nftAddress","type":"address","internalType":"address"},{"name":"tokenId","type":"uint256","internalType":"uint256"}]},{"type":"error","name":"NftMarketplace__NotOwner","inputs":[]},{"type":"error","name":"NftMarketplace__PriceMustBeAboveZero","inputs":[]},{"type":"error","name":"NftMarketplace__PriceNotMet","inputs":[{"name":"nftAddress","type":"address","internalType":"address"},{"name":"tokenId","type":"uint256","internalType":"uint256"},{"name":"price","type":"uint256","internalType":"uint256"}]},{"type":"error","name":"NftMarketplace__TransferFailed","inputs":[]}],"bytecode":{"object":"0x608060405234801561001057600080fd5b506108d3806100206000396000f3fe60806040526004361061007b5760003560e01c80639038e6931161004e5780639038e693146101745780639f37092a14610189578063b2ddee061461019c578063f772adf1146101bc57600080fd5b8063150b7a021461008057806330cfeda9146100ca57806388700d1c1461010e57806389bfd38f14610152575b600080fd5b34801561008c57600080fd5b506100ac61009b366004610762565b630a85bd0160e11b95945050505050565b6040516001600160e01b031990911681526020015b60405180910390f35b3480156100d657600080fd5b506101006100e53660046107fd565b6001600160a01b031660009081526001602052604090205490565b6040519081526020016100c1565b34801561011a57600080fd5b5061012e61012936600461081f565b6101dc565b60408051825181526020928301516001600160a01b031692810192909252016100c1565b34801561015e57600080fd5b5061017261016d366004610849565b61022a565b005b34801561018057600080fd5b5061017261033e565b61017261019736600461081f565b6103e8565b3480156101a857600080fd5b506101726101b736600461081f565b610570565b3480156101c857600080fd5b506101726101d7366004610849565b610680565b604080518082018252600080825260209182018190526001600160a01b0385811682528183528382208583528352908390208351808501909452805484526001015416908201525b92915050565b6000811161024b5760405163096d7ecf60e01b815260040160405180910390fd5b6040805180820182528281523360208083018281526001600160a01b0388811660008181528085528781208a82528552879020955186559151600190950180546001600160a01b0319169590911694909417909355925184815285937fd547e933094f12a9159076970143ebe73234e64480317844b0dcb36117116de4910160405180910390a4604051632142170760e11b8152336004820152306024820152604481018390526001600160a01b038416906342842e0e906064015b600060405180830381600087803b15801561032157600080fd5b505af1158015610335573d6000803e3d6000fd5b50505050505050565b336000908152600160205260409020548061036c576040516333453e2160e11b815260040160405180910390fd5b336000818152600160205260408082208290555190919083908381818185875af1925050503d80600081146103bd576040519150601f19603f3d011682016040523d82523d6000602084013e6103c2565b606091505b50509050806103e45760405163502c425d60e11b815260040160405180910390fd5b5050565b6001600160a01b0380831660009081526020818152604080832085845282529182902082518084019093528054835260010154909216918101829052906104595760405163369a879160e11b81526001600160a01b0384166004820152602481018390526044015b60405180910390fd5b805134101561049757805160405163817ce9f160e01b81526001600160a01b0385166004820152602481018490526044810191909152606401610450565b6020808201516001600160a01b0316600090815260019091526040812080543492906104c490849061087c565b90915550506001600160a01b0383166000818152602081815260408083208684528252808320928355600190920180546001600160a01b03191690558351915191825284929133917f263223b1dd81e51054a4e6f791d45a4a1ddb4aadcd93a2dfd892615c3fdac187910160405180910390a4604051632142170760e11b8152306004820152336024820152604481018390526001600160a01b038416906342842e0e90606401610307565b6001600160a01b038281166000908152602081815260408083208584529091529020600101541633146105b6576040516304a4a9db60e51b815260040160405180910390fd5b6001600160a01b03821660008181526020818152604080832085845290915280822082815560010180546001600160a01b03191690555183929133917f9ba1a3cb55ce8d63d072a886f94d2a744f50cddf82128e897d0661f5ec6231589190a4604051632142170760e11b8152306004820152336024820152604481018290526001600160a01b038316906342842e0e90606401600060405180830381600087803b15801561066457600080fd5b505af1158015610678573d6000803e3d6000fd5b505050505050565b600081116106a15760405163096d7ecf60e01b815260040160405180910390fd5b6001600160a01b038381166000908152602081815260408083208684529091529020600101541633146106e7576040516304a4a9db60e51b815260040160405180910390fd5b6001600160a01b038316600081815260208181526040808320868452825291829020849055905183815284929133917f3c33e65e8698294810b631d476d60b44425303828da0b1f8b635231bfda12be2910160405180910390a4505050565b80356001600160a01b038116811461075d57600080fd5b919050565b60008060008060006080868803121561077a57600080fd5b61078386610746565b945061079160208701610746565b935060408601359250606086013567ffffffffffffffff808211156107b557600080fd5b818801915088601f8301126107c957600080fd5b8135818111156107d857600080fd5b8960208285010111156107ea57600080fd5b9699959850939650602001949392505050565b60006020828403121561080f57600080fd5b61081882610746565b9392505050565b6000806040838503121561083257600080fd5b61083b83610746565b946020939093013593505050565b60008060006060848603121561085e57600080fd5b61086784610746565b95602085013595506040909401359392505050565b8082018082111561022457634e487b7160e01b600052601160045260246000fdfea264697066735822122055574a3a1217e15d610330c3823e38a24a96fdb1ccb6c44a2e76cb70f4dda0aa64736f6c63430008140033","linkReferences":{}},"methodIdentifiers":{"buyItem(address,uint256)":"9f37092a","cancelListing(address,uint256)":"b2ddee06","getListing(address,uint256)":"88700d1c","getProceeds(address)":"30cfeda9","listItem(address,uint256,uint256)":"89bfd38f","onERC721Received(address,address,uint256,bytes)":"150b7a02","updateListing(address,uint256,uint256)":"f772adf1","withdrawProceeds()":"9038e693"},"id":38}